:020000040800F2
:1000000000040020B9010008BB010008BB01000882
:10001000BB010008BB010008BB010008BB010008D0
:10002000BB010008BB010008BB01000839AE000895
:10003000BB010008BB010008BB01000847C3000862
:10004000BB010008BB010008BB010008BB010008A0
:10005000BB010008BB01000869C0000891C000088E
:10006000B9C00008E1C0000809C10008BB010008D0
:10007000BB010008BB010008C1CD0008BB0100089E
:1000800031C10008BB01000865C60008BB010008BB
:1000900079C60008BB0100084DC400087DC60008F1
:1000A000BB010008BB010008ADC90008C1C90008B8
:1000B000BB010008BB0100088DC70008BB01000898
:1000C000A1C7000895C10008BB010008BB010008DA
:1000D000BB010008BB010008BB010008BB01000810
:1000E00072B6264880F30888254880F30988254899
:1000F00025490860022080F31488BFF36F8F0AF04F
:100100006FFB09F0D3FE4FF0553020491B4A914256
:100110003CBF41F8040BFAE71D49194A91423CBF24
:1001200041F8040BFAE71B491B4A1C4B9A423EBF9D
:1001300051F8040B42F8040BF8E700201849194A5B
:1001400091423CBF41F8040BFAE70AF04DFB0AF07C
:1001500048FB154C154DAC4203DA54F8041B884794
:10016000F9E707F09FFA124C124DAC4203DA54F84B
:10017000041B8847F9E70AF035BB000000040020A3
:10018000000C00200000000808ED00E00000002046
:1001900000040020F4EE0008000C0020D411002020
:1001A000D8110020AC490020E0000008E000000861
:1001B000E0000008E000000892E705F03FFAFEE7E3
:1001C0002DE9F04FC1F80CD0C3689D46BDE8F08F13
:1001D000002383F311882846A04700200AF032FD4F
:1001E000FEE70AF063FC00DFFEE7000053B94AB9FE
:1001F000002908BF00281CBF4FF0FF314FF0FF302F
:1002000000F08AB9ADF1080C6DE904CE00F01AF8DF
:10021000DDF804E0DDE9022304B07047430803F091
:100220005533C01A830803F0333300F033301844D9
:1002300000EB101000F00F3000EB002000EB00404E
:10024000000E70472DE9F047089E0D46044688468B
:10025000002B4DD18A42944668D9B2FA82F252B14B
:1002600001FA02F3C2F1200120FA01F10CFA02FCBA
:1002700041EA030894404FEA1C41B8FBF1F71FFA2A
:100280008CFE01FB178807FB0EF0230C43EA0843A2
:1002900098420AD91CEB030307F1FF3580F01E8159
:1002A000984240F21B81023F63441B1AB3FBF1F0FA
:1002B00001FB103300FB0EFEA4B244EA0344A64542
:1002C0000AD91CEB040400F1FF3380F00981A64534
:1002D00040F20681644402380021A4EB0E0440EA97
:1002E00007401EB10023D440C6E90043BDE8F087B3
:1002F0008B4208D9002E00F0EE800021C6E90005EF
:100300000846BDE8F087B3FA83F100294AD1AB4231
:1003100002D3824200F2FC80841A65EB03030120C1
:100320009846002EE2D0C6E90048DFE702B9FFDEBA
:10033000B2FA82F2002A40F09180A1EB0C00012178
:100340004FEA1C471FFA8CFEB0FBF7F307FB1300C4
:10035000250C45EA00450EFB03F0A84208D91CEB2A
:10036000050503F1FF3802D2A84200F2CE804346D1
:100370002D1AB5FBF7F007FB10550EFB00FEA4B2DB
:1003800044EA0544A64508D91CEB040400F1FF35F6
:1003900002D2A64500F2B6802846A4EB0E0440EA3D
:1003A00003409EE7C1F120078B4022FA07FC4CEA8C
:1003B000030C25FA07FA4FEA1C49BAFBF9F820FAB0
:1003C00007F309FB18AA8D401FFA8CFE1D4300FAA3
:1003D00001F308FB0EF02C0C44EA0A44A04202FA96
:1003E00001F20BD91CEB040408F1FF3A80F088807D
:1003F000A04240F28580A8F102086444241AB4FBAC
:10040000F9F009FB104400FB0EFEADB245EA0444CE
:10041000A64508D91CEB040400F1FF356CD2A645B3
:100420006AD90238644440EA0840A0FB0295A4EB74
:100430000E04AC42C846AE4656D353D0002E69D007
:10044000B3EB080264EB0E0422FA01F304FA07F797
:100450001F43CC40C6E90074002147E70CFA02FCB8
:10046000C2F1200125FA01F34FEA1C4720FA01F1FD
:1004700095400D43B3FBF7F107FB11331FFA8CFED8
:10048000280C40EA034001FB0EF3834204FA02F415
:1004900008D91CEB000001F1FF382FD283422DD97F
:1004A00002396044C01AB0FBF7F307FB1300ADB28A
:1004B00045EA004503FB0EF0A84208D91CEB0505F0
:1004C00003F1FF3816D2A84214D9023B6544281A1A
:1004D00043EA014138E73146304607E72F46E4E674
:1004E0001846F9E64B45A9D2B9EB020865EB0C0EAC
:1004F0000138A3E74346EAE7284694E74146D1E7B7
:10050000D0467BE76444023847E7023B65442FE767
:10051000084606E73146E9E6704700BF062008B501
:1005200000F00EFA01200BF01FFC00BF032A10B5EB
:1005300016D940EA010C1CF0030F04460B4622D1E9
:1005400019462046D1F800E0D0F800C00433F44545
:1005500004F1040417D1043A032A20461946EFD8BF
:10056000541EA2B100F1FF3C013901E0C3180CD0C8
:100570001CF801EF11F8012FA4EB0C039645F5D000
:10058000AEEB020010BD541EECE7184610BD10463D
:1005900010BD00BF844641EA000313F0030349D1B4
:1005A000403A23D30B6803604B6843608B688360D9
:1005B000CB68C3600B6903614B6943618B698361DD
:1005C000CB69C3610B6A03624B6A43628B6A8362C5
:1005D000CB6AC3620B6B03634B6B43638B6B8363AD
:1005E000CB6BC36340304031403ADBD230320BD367
:1005F0000B6803604B6843608B688360CB68C360A3
:1006000010301031103AF3D20C3205D351F8043BBC
:1006100040F8043B043AF9D2043208D0D2071CBF98
:1006200011F8013B00F8013B01D30B8803806046C1
:10063000704700BF082A13D38B07B1D010F0030313
:10064000AED0C3F10403D21ADB071CBF11F8013B83
:1006500000F8013BA4D331F8023B20F8023B9FE7AE
:10066000043AD9D3013A11F8013B00F8013BF9D221
:100670000B7803704B7843708B78837060467047BB
:10068000830730B548D0541E002A3FD00346CAB273
:1006900001E0013C3AD303F8012B9D07F9D1032C6B
:1006A0002DD9CDB245EA05250F2C45EA054536D9A9
:1006B000A4F1100222F00F0C03F1200EE6444FEAE1
:1006C000121C03F1100242E9045542E902551032AE
:1006D0007245F8D10CF1010214F00C0F03EB021279
:1006E00004F00F0C13D0ACF1040323F00303043324
:1006F000134442F8045B9342FBD10CF003042CB189
:10070000CAB21C4403F8012B9C42FBD130BD6446A5
:100710001346002CF4D1F9E703461446BFE71A4606
:10072000A446E0E738B5124B04461D68AA6B1AB11F
:100730000023C2E9044338BD182000F02DFA024618
:10074000A86378B100210B2301209381C2E9040141
:10075000084B0949094DC2E9011300231560C2E99C
:10076000044338BD4221064B064800F0CDF900BFD6
:10077000000C0020ECDE050034126DE60E33CDAB2C
:1007800024EE00083CEE000838B5194B1C68A26B3B
:100790008AB113691749546903FB01F1164800FB3C
:1007A0000411A3FB0030013341EB0001C2E9043125
:1007B00021F0004038BD182000F0EEF90246A06399
:1007C00088B1012400250B230A480C49C2E90445DD
:1007D000116001460A4D0B4C93810B4BC2E9015449
:1007E000C2E9043138BD4E21084B094800F08CF9AC
:1007F000000C00202DF451582D7F954C0E33CDABBD
:1008000034126DE6ECDE05002E7F954C24EE0008D8
:100810003CEE000838B5446C0CB1002038BD802196
:10082000054600F02FFA0246686430B1031F7C329F
:1008300043F8044F9342FBD1EFE74FF0FF3038BD50
:100840001F29F8B5054608D8466C0C4617464EB128
:1008500056F8240046F82470F8BD16234FF0FF30F8
:100860002B60F8BD802100F00DFA0646686440B1A7
:100870000021031F00F17C0543F8041F9D42FBD1BA
:10088000E6E74FF0FF30F8BD1F2938B5054620D800
:10089000426C0C466AB152F8213053B1012B16D08C
:1008A000591C10D00025204642F82450984728466D
:1008B00038BD284600F0F8F8224601462846BDE833
:1008C000384000F0DDB8162301202B6038BD002031
:1008D00038BD16234FF0FF302B6038BD1F292BD8B1
:1008E000426C38B50C46054682B152F8243002EB12
:1008F00084024BB1591C1AD0012B16D0002520467A
:1009000015609847284638BD012038BD802100F089
:10091000B9F90246686460B10020131F02F17C013E
:1009200043F8040F9942FBD1DFE7032038BD0220D2
:1009300038BD4FF0FF3038BD4FF0FF30704700BF7B
:1009400038B5144B1F281D681FD86A6C044662B165
:1009500052F820304BB1012B15D0591C0FD0002577
:1009600042F820509847284638BD284600F09CF8A9
:10097000224601462846BDE8384000F081B81623DB
:1009800001202B6038BD002038BD16234FF0FF300A
:100990002B6038BD000C0020124B1F2870B51E685C
:1009A00008D80D46716C044649B151F8240041F84D
:1009B000245070BD16234FF0FF30336070BD80218E
:1009C000304600F05FF90146706440B10022031F19
:1009D00000F17C0C43F8042F6345FBD1E5E74FF0B1
:1009E000FF3070BD000C002038B50B4B1D686C6CDF
:1009F0000CB1002038BD8021284600F043F968641E
:100A000038B1031F00F17C0243F8044F9342FBD13D
:100A1000EFE74FF0FF3038BD000C002038B5174B22
:100A20001F281D6827D86A6C044682B152F824300A
:100A300002EB84024BB1591C1BD0012B17D00025AF
:100A4000204615609847284638BD012038BD8021D2
:100A5000284600F017F90246686460B10020131FB1
:100A600002F17C0143F8040F8B42FBD1DEE7032047
:100A700038BD022038BD4FF0FF3038BD000C0020DB
:100A800070B50026074D0446084611462E600BF04F
:100A900073F9431C00D070BD2B68002BFBD0236082
:100AA00070BD00BFE01100200BF06EB920F0030113
:100AB00010F00300C0F1000051F8043B00F1040CF9
:100AC0004FEACC0C6FF000021CBF22FA0CF2134369
:100AD0004FF0010C4CEA0C2C4CEA0C4CA3EB0C0232
:100AE00022EA030212EACC1204BF51F8043B04309C
:100AF000F4D0C2F1000102EA0102B2FA82F2C2F1BC
:100B00001F0200EBD2007047144600B51A460A4B8C
:100B10000D461B6885B0DE6803464CB1074901915C
:100B2000304607490294009500F022F8FFF7F6FCE2
:100B300004490C46F3E700BF000C002070EE0008EB
:100B400080EE00087CEE000808B513460022FFF78F
:100B5000DBFF00BF0CB400B583B004AB53F8042B2B
:100B6000019300F025F903B05DF804EB02B0704783
:100B70000EB400B5074A82B003AB0146106853F8C3
:100B8000042B019300F014F902B05DF804EB03B0FC
:100B9000704700BF000C0020024B0146186800F0AF
:100BA00071B800BF000C0020024B0146186800F02D
:100BB00003B800BF000C0020002952D038B551F80E
:100BC000043C0C1F002BB8BFE418054601F02AFABC
:100BD0002B4A1368002B45D0A3420CD9216860181A
:100BE000834228D0636028461460BDE8384001F095
:100BF0001BBAA3420FD81A465B68002BF9D11168C3
:100C0000501884421DD034D3636054602846BDE838
:100C1000384001F009BA11685018A04215D028D800
:100C2000216860188342EFD118685B680144C4E909
:100C300000135460EAE718685B680144C4E90013D4
:100C4000D1E7236819441160E0E720680144501897
:100C500083421160DAD1D3E900030144C2E90013F1
:100C6000D4E77047284663601460BDE8384001F05F
:100C7000DBB90C2328462B60BDE8384001F0D4B91D
:100C8000D8110020F8B5CD1C25F0030508350C2D32
:100C900038BF0C25002D064623DBA94221D8264F5C
:100CA00001F0C0F93A6822B3144603E063682246B3
:100CB000FBB11C4623685B1BF8D40B2B15D863686B
:100CC00094420CBF3B605360304601F0ADF904F133
:100CD0000B00231D20F00700C21A01D01B1AA350DD
:100CE000F8BD0C2300203360F8BD23601C44256050
:100CF000EAE77968D1B1294630460BF019F8431C70
:100D000001460CD0C41C24F00304A04205D0304698
:100D1000611A0BF00DF8013001D02560D4E70C23E7
:100D20003046336001F080F90020F8BD30460AF00B
:100D3000FFFF7860DFE700BFD81100209368013B18
:100D4000002B936005DAD2F818C0634507DB0A2947
:100D500005D01368581C106008461970704700F0E1
:100D600069BB00BF9BB1F8B5134406460F46541E3D
:100D70005D1E01E0AC4208D03A46304614F8011F2F
:100D8000FFF7DCFF431CF5D1F8BD0020F8BD0020C3
:100D9000704700BF936810B5144613B918465360E6
:100DA00010BD00F031FE0023C4E9013310BD00BFC7
:100DB0002DE9F04F0E4692461C4607469FB018B1EB
:100DC0008369002B00F0A880954B9E4200F0AA801A
:100DD000944B9E4200F0B580934B9E4208BFFE6844
:100DE000B389180740F1A3803369002B00F09F807E
:100DF000002320220B9330239AF80010059401253C
:100E00008A4C8DF831208DF8323000297DD0D146C2
:100E10000B4604E019F8013F002B00F09480252BCD
:100E2000F8D1B9EB0A0B40F0918099F80030002B13
:100E30006BD000234FF0FF3209F10109CDE9072300
:100E4000069309938DF85B301C9304E0001B05FAB0
:100E500000F018430690CA460522204619F8011BE7
:100E600001F01CF8069B0028F0D1D90644BF2022CF
:100E70008DF85B201A0748BF2B229AF8001048BF54
:100E80008DF85B202A2972D1059A11680432002955
:100E90000592C0F2A08009919AF801100AF1010AA6
:100EA0002E2976D0DFF888910322484600F0F6FF1D
:100EB00048B14022069BA0EB090002FA00F0034370
:100EC0000AF1010A06931AF8011B062259488DF807
:100ED000301000F0E3FF002800F08380564B002B19
:100EE0006CD005A9009132463846544B06A9AFF3A1
:100EF00000800390039B013307D00B9B039A9AF861
:100F0000001013440B93002981D1B3895B0615D4DB
:100F10000B981FB0BDE8F08F00F056FD404B9E428D
:100F20007FF456AF7E68B38918073FF55DAF314651
:100F3000384600F0E1FA00283FF45AAF4FF0FF3096
:100F4000E7E7BE684CE7B9EB0A0BDED0D046CAF142
:100F5000010A03E0934538D918F8011F3246384694
:100F6000FFF7ECFE01300AEB0802F3D1CDE7A1F167
:100F70003002092A94D8099B1AF8011F03EB830356
:100F800002EB4303A1F13002092AF5D92E29099376
:100F900088D19AF801102A292DD1059B0AF1020067
:100FA0001A680433002A0593B8BF4FF0FF339AF84C
:100FB000021007928246B8BF079373E7059B073379
:100FC00023F007030833059397E70B9A99F800304D
:100FD0005A440B922BE7494243F0020309910693CE
:100FE0005AE705A9009132463846144B06A900F08D
:100FF000CBF803907EE70023A1F13002092A0AF121
:10100000010A07933FF64EAF1AF8011F03EB830363
:1010100002EB4303A1F13002092AF5D9079341E716
:10102000B4E3000894E3000874E30008B0EE00089D
:10103000B8EE0008BCEE000800000000650D0008D6
:101040008C4600B586461346034A714610685DF823
:1010500004EB6246FFF7ACBE000C00202DE9F04720
:1010600091461E460A698B680C469A42B8BF1A46DA
:10107000C9F8002091F843300546DDF8208013B10F
:101080000132C9F80020226891065DD5D9F80030F8
:101090000233C9F80030226812F0060F11461ED143
:1010A000E168CB1A002BD8BF114618DD002704F1E8
:1010B000190A06E0D9F80030E268A2EB030CBC453F
:1010C0000CDD0123524631462846C047013007F166
:1010D0000107EFD14FF0FF30BDE8F087216894F8A9
:1010E0004330003B18BF01238A060AD53021E2189D
:1010F00082F8431094F845105A1C2244023382F8B7
:1011000043103146284604F14302C0470130E1D084
:10111000236803F00603042B1DD0A36822699342C1
:1011200025DD00279B1A1F4404F11A09002401E061
:10113000BC421CDA01234A4631462846C0470130EA
:1011400004F10104F4D1C5E712F0060F12D0003B00
:1011500018BF0123D5E7D9F80030E1682269C91A20
:10116000A36821EAE1779342DCDC0029DCDC002083
:10117000BDE8F087E168D9F80030CB1A002BD8BF62
:10118000114693DCABE700BF2DE9F04317460A7E1A
:1011900085B00C46064698460C9D01F1430C002A8A
:1011A00033D0A2F15803D9B2202967D8202B65D8B3
:1011B000DFE813F0DD006400640064006400640094
:1011C00064006400640064006400A3006E006400B6
:1011D0006400640064006E006400640064006400E5
:1011E00021007F00BF0064006400AE0064007F0047
:1011F00064006400E40023681A0640F102812B6851
:101200006269191D29601B681A600023E146236189
:101210003B4621463046CDF8008003AAFFF71EFF6B
:10122000013020D04A46394630462369C047013054
:1012300019D02368E0689B07039919D5431A002B3E
:1012400016DD002504F1190904E0E0680399431A4A
:10125000AB420DDD01234A4639463046C0470130D6
:1012600005F10105F1D14FF0FF3005B0BDE8F08385
:101270008842B8BF084605B0BDE8F083012384F872
:10128000422004F142092361002384F84330BFE780
:101290002368190602D45A0600F1BF8029680A683B
:1012A000043129601146002A6ADB0A25DFF87CE157
:1012B00010E02368180640F19A802B68191D2960F8
:1012C00019686F2A0CBF08250A25DFF860E10023A2
:1012D00084F843306268002AA2607DDB236823F033
:1012E00004032360002959D1002A77D1E146082D53
:1012F00063D0ACEB090323618AE701222B6804F178
:101300004209196804332B6084F842102261BBE75C
:101310002B6800211A1D2A60D3F8009062684846A5
:1013200000F0BCFD00287FD0A0EB090060602061C8
:10133000AAE7236843F0200323607822DFF8F0E077
:1013400084F845202A68111D2960190642D45D06DB
:1013500040D51188D80744BF43F0200323600029FB
:1013600043D12368102523F020032360AFE75823DF
:10137000DFF8B8E084F845302368E3E72368DCE76A
:101380002D2284F8432062684942002AA26002DBD1
:1013900023F0040323600A25DFF890E0E146B1FB67
:1013A000F5F30A4605FB131019461EF80030AA4251
:1013B00009F8013DF3D2082D9BD12368D90798D5B0
:1013C000626823699A4294DC302309F1FF3989F875
:1013D00000308EE71168BDE70029DFD19EF80030AC
:1013E00004F1420984F8423081E710256FE713F0D9
:1013F000400F2B6803F1040129600CBF196819889C
:101400005FE713F0400F2B68626903F10401296064
:101410001B6814BF1A801A60F7E62A68B2F9001038
:1014200004322A600A463EE7606880E7C4EE00089E
:10143000D8EE0008F8B506460D46144608B1836993
:1014400043B3254B9C422AD0244B9C4229D0244BA9
:101450009C4208BFF468A269A389A2601A0722D53A
:10146000236903B322686169D31AEDB299422F460A
:1014700029DD0133A1680139A160511C216015707B
:1014800062699A4216D0A389DB0701D50A2D11D0D3
:101490003846F8BD00F098FA0F4B9C42D4D17468DE
:1014A000D9E7B468D7E72146304600F025F838B9C7
:1014B0002369D7E72146304600F024F90028E7D019
:1014C0004FF0FF37E4E72146304600F01BF90028D3
:1014D000F6D101232268CDE7B4E3000894E30008C5
:1014E00074E3000803460A46024908681946FFF7F4
:1014F000A1BF00BF000C00203C4B70B51D68064624
:101500000C460DB1AB69E3B1394B9C421FD0394B4E
:101510009C424DD0384B9C4208BFEC68B4F90C306B
:1015200018079AB219D5216911B312F001002FD012
:1015300000256069A5604042A06100292ED00020EE
:1015400070BD284600F040FA294B9C42DFD16C6800
:10155000B4F90C3018079AB2E5D4D1063ED552073B
:1015600028D4216943F00803A3819AB20029DCD171
:1015700002F42070B0F5007FD7D02146304600F04D
:10158000FFFBB4F90C3021699AB212F00100CFD1FF
:10159000950758BF6069A0600029D0D1120658BFD6
:1015A0000846CDD543F040034FF0FF30A38170BD16
:1015B000AC68B3E7616B51B104F14402914204D0CD
:1015C0003046FFF7F9FAB4F90C30002262630022CA
:1015D000216923F02403C4E90012C3E7092243F080
:1015E000400332604FF0FF30A38170BD000C00203B
:1015F000B4E3000894E3000874E30008F8B58B89AD
:101600000C46190707463BD46268002A55DDE66A96
:10161000002E50D000223D683A6013F4805250D121
:1016200001233846216AB047421C5CD0A389E66A90
:101630005B0705D56368C01A636B0BB1236CC01AD6
:101640000246216A00233846B047411C3BD13B6823
:10165000002B38D01D2B01D0162B4BD10023226933
:10166000C4E90023616B3D6029B304F1440399424E
:1016700002D03846FFF7A0FA002318466363F8BD8E
:101680002669C6B19A0718BF0023256808BF636999
:101690002660AD1BA3600CE02B463246D4F828C070
:1016A0003846216AE047B0F1000CA5EB0C05664412
:1016B00012DD002DF0DC0020F8BD226C002AA6DC33
:1016C000F9E7606DB4E70022236962602360A389B3
:1016D000DB04C7D56065C5E7A3894FF0FF3043F051
:1016E0004003A381F8BD3B68002B9FD01D2B06D083
:1016F000162B04D0A38943F04003A381F8BD00203A
:101700003D60F8BD38B50B69BBB10C46054608B164
:101710008369B3B10D4B9C4211D00D4B9C4213D049
:101720000C4B9C4208BFEC68B4F90C302BB121463D
:101730002846BDE83840FFF761BF002038BD6C681F
:10174000F2E700F041F9E5E7AC68EDE7B4E3000843
:1017500094E3000874E3000838B540B30369044615
:10176000E3B1174B1D680DB1AB69CBB1154B9C4272
:101770000FD0154B9C4221D0144B9C4208BFEC6803
:10178000B4F90C3053B121462846BDE83840FFF784
:1017900035BF6C68B4F90C30002BF4D1002038BD93
:1017A000284600F011F9074B9C42E2D1F1E7084BC3
:1017B00008491868BDE8384000F0BEBAAC68DFE7F9
:1017C000000C0020B4E3000894E3000874E3000870
:1017D00070E300080517000800207047014900F079
:1017E000ABBA00BF0517000800207047682270B52B
:1017F0004D1E02FB05F50E4605F17401FFF742FA96
:10180000044640B100210C30C4E9016005F16802D2
:101810002160FEF735FF204670BD00BF274B2DE944
:10182000F0411E680746B36953B34FF004084836C9
:10183000D6E90134013B04D51EE05A1C04F16804CA
:101840001AD0B4F90C50013B002DF6D11C4B0822E4
:101850002946C4E90055C4E90253C4E90455656644
:10186000A56104F15C00FEF70BFFC4E90D55C4E966
:1018700012552046BDE8F08135682DB12E46D7E7D8
:10188000304600F01FF8D0E74FF4D6713846FFF726
:10189000F9F9044668B1056029460546C0F8048098
:1018A0000C304FF4D072A060FEF7EAFE34602E4692
:1018B000BEE70C2330603B60DBE700BF70E300084D
:1018C0000100FFFF0023334A2DE9F0471268C0E909
:1018D00012339042036508BF01232F4908BF83617B
:1018E00081620546FFF79AFF034628466B60FFF7C3
:1018F00095FFA86028460024FFF790FF04236E6838
:10190000DFF898A0DFF89890DFF89880264FE8601D
:101910000822F3602146C6E90044C6E9044474661F
:10192000B460B46106F15C00FEF7AAFE1F4BC6E985
:10193000086AC6E90A983763AE680822F360214650
:10194000C6E90044C6E904447466B460B46106F1B3
:101950005C00FEF795FE164BC6E9086AC6E90A98D0
:101960003763EE682146F3600822C6E90044C6E901
:1019700004447466B460B46106F15C00FEF780FE56
:101980000123C6E9086AC6E90B87C6F82890AB614F
:10199000BDE8F08770E30008DD1700087D2000082F
:1019A000A5200008E5200008052100080900010025
:1019B00012000200024B0349186800F0BDB900BFD5
:1019C00070E3000805170008836903B97AE77047D8
:1019D000704700BF704700BF704700BF704700BF2F
:1019E000024B0349186800F087B900BF000C0020C3
:1019F000D9170008024B0349186800F07DB900BFF1
:101A0000000C0020E91700089368002B00F0B78055
:101A10002DE9F04FB1F90C300C46190780461746F6
:101A200083B098B225D523691BB310F002033D683B
:101A30002DD04FF0000B5E46DFF8B8A2002E00F06C
:101A40008B80564533465A4628BF53464046216A46
:101A5000D4F828C0E047002840F38780BB6883445F
:101A60001B1A361ABB60002BE8D1002003B0BDE87A
:101A7000F08F21464046FFF73FFD002840F03681B9
:101A8000B4F90C303D6898B210F00203D1D110F0D7
:101A9000010976D14E46002E5AD08205D4F808B0FE
:101AA00040F1B580B3455A4600F2CD8010F4906FF6
:101AB00000F0CB8023682169A3EB010B636903EB82
:101AC000430A0AEBDA7A0BF101034FEA6A0A33445C
:101AD0005345524684BF9A465246430540F1EA8038
:101AE00011464046FFF7CEF8002800F0F9805A462C
:101AF00021690190FEF74EFDA289019B22F49062BC
:101B000042F08002A28103EB0B0023613246AAEB74
:101B10000B03B346C4F814A0A3602060B2460026AD
:101B20004946019200F002FAA3682168019AA3EBEA
:101B30000B030A44A3602260B868D144A0EB0A00FA
:101B4000B860002891D0B4F90C0080B2002EA4D166
:101B5000D5E9009608359EE7D5E900B608356DE76A
:101B600021464046FFF7CEFD80B3B4F90C304FF06C
:101B7000FF3043F04003A38103B0BDE8F08F0020A5
:101B800070471E46AA46994618461D4656B3002879
:101B900032D04A4620682169B24228BF3246884284
:101BA000636904D9A16803EB010B5A4574DC9342C5
:101BB00065DC2A464046216AD4F828C0E047B0F1E7
:101BC000000BD2DDB9EB0B09CAD00120BB685D4424
:101BD000A3EB0B03A6EB0B06BB60002B3FF445AF5A
:101BE000002ED4D10AF1080353F8046C9A4653F836
:101BF000085C0833002EF7D032460A21284600F050
:101C00004DF9002869D00130A0EB0509C1E7206833
:101C1000236998421BD86369B34218D86FF0004C0F
:101C2000B44528BFB4469CFBF3FC4A4603FB0CF3C7
:101C30004046216AD4F828C0E047B0F1000A94DD9C
:101C4000A6EB0A0678E7B3463246206866E7B34556
:101C5000DA4628BFB2464946524600F067F9A36803
:101C60002268A3EB0A035244A3602260002BE7D151
:101C700021464046FFF746FD0028E1D075E729469A
:101C80009346019200F052F9A368019A9B1AA3604F
:101C900023681A44226095E729465A4600F046F91F
:101CA000236821465B4440462360FFF72BFD002854
:101CB00088D05AE7404600F0B9F9034600287FF47F
:101CC00022AF40462169FEF777FF0C22B4F90C30B1
:101CD000C8F8002023F0800349E7721C914659E7B9
:101CE0000C22B4F90C30C8F8002040E74FF0FF3068
:101CF000BCE600BF00FCFF7F2DE9F04100268846CE
:101D000000F14807D7E90154013D0ED4A389013DF4
:101D1000012B06D9B4F90E30013302D02046C0475A
:101D200006436B1C04F16804F0D13F68002FE9D131
:101D30003046BDE8F08100BF2DE9F8434FF00009BF
:101D40000746884600F14806D6E90154013D10D403
:101D5000A389013D012B08D9B4F90E30013304D019
:101D600021463846C04749EA00096B1C04F1680463
:101D7000EED13668002EE7D14846BDE8F88300BFB3
:101D8000F0B58B890C46990797B007D5012204F16D
:101D90004703C4E90432236017B0F0BDB4F90E1054
:101DA000054600292DDB6A4609F0CFFF002827DB16
:101DB000019E4FF4806706F47046A6F50056B6FA09
:101DC00086F6394628467609FEF75CFF30B3A389CC
:101DD0001A4A43F08003AA62C4E90407A381206081
:101DE000002ED9D02846B4F90E1009F0BAFF002809
:101DF000D2D0A38923F0030343F00103A381CBE7EF
:101E0000A38913F0800F14BF40274FF48067284642
:101E100039460026FEF736FF0028D8D1B4F90C3039
:101E20009A05B9D4012123F0030304F1470243F0DA
:101E30000203C4E90421A3812260ADE7DD17000895
:101E400070B50C46B1F90E10164600291D4696B025
:101E500013DB6A4609F079FF00280EDB01994FF485
:101E6000806301F47041A1F50051B1FA81F10020C5
:101E700049092960336016B070BD0022B4F90C30F6
:101E80002A601B0604D540230020336016B070BDC5
:101E90004FF480630020336016B070BD5FFA81FCA0
:101EA000810710D00346511E2AB90AE09A07184646
:101EB0000AD0013905D3184613F8012B6245F5D134
:101EC000704700207047114603290CD80029F8D02C
:101ED0000346014401E08B42F3D0184613F8012B6E
:101EE0006245F8D1ECE7024610B54CEA0C2444EA0E
:101EF00004441046036804326340A3F1013E2EEA15
:101F0000030313F0803F04D1043903291046F0D8AD
:101F100051B10346014401E08B4205D0184613F845
:101F2000012B6245F8D110BD002010BD88420DD9AB
:101F30008B1883420AD900EB020CBAB1624613F83F
:101F400001CD994202F801CDF9D170470F2A0ED880
:101F5000034602F1FF3C4AB10CF1010C013B8C44F9
:101F600011F8012B614503F8012FF9D1704740EAC0
:101F700001039B074FD1A2F1100370B501F1200CB2
:101F800023F00F0501F1100E00F11004AC441B0901
:101F90005EF8105C0EF1100E44F8105C5EF81C5CEC
:101FA000103444F81C5C5EF8185C44F8185C5EF869
:101FB000145CE64544F8145CEAD1013312F00C0FCE
:101FC00001EB031102F00F0400EB031327D08E4640
:101FD000043C24F003064FEA940C1E441C1F5EF8D8
:101FE000045B44F8045FB442F9D10CF1010402F03F
:101FF000030203EB840301EB840102F1FF3C4AB1CD
:102000000CF1010C013B8C4411F8012B614503F8E4
:10201000012FF9D170BD034602F1FF3C9CE7224637
:10202000EBE700BF704700BF704700BFF8B514462C
:10203000F9B1CAB106460D4600F068F8A04202D3D5
:102040002F463846F8BD21463046FEF71BFE0746B0
:102050000028F6D022462946FEF79CFA304629464B
:10206000FEF7AAFD3846F8BD2746FEF7A5FD38461F
:10207000F8BD1146BDE8F840FEF704BE10B50C46A9
:10208000B1F90E1009F049FE002803DB636D03442B
:10209000636510BDA38923F48053A38110BD00BFE5
:1020A000002070472DE9F0410C46B1F90C101F4695
:1020B000CB05054616460BD421F48051A1813B4641
:1020C00032462846B4F90E10BDE8F04109F02CBEA6
:1020D000B4F90E100223002209F024FEB4F90C100A
:1020E000EAE700BF10B50C46B1F90E1009F01AFE70
:1020F000A389421C0EBF23F4805343F480536065D0
:10210000A38110BDB1F90E1009F010BE51F8040CF6
:102110000028A0F10400BCBF0B58C018704700BFD6
:10212000002313B50446CDE9003338B100F0AEFA10
:1021300020B9082221466846FEF72CFA68460BF0C3
:1021400059F902B010BD10B5044640B100F09EFA36
:1021500028B91E21601CBDE810400BF08BB91E2170
:102160000020F8E7002313B5044600938DF80430EF
:1021700088B100F08BFA70B963788DF80030A378DD
:102180008DF80130E3788DF8023063798DF80330F3
:1021900023798DF8043068460BF0C9FA02B010BDFF
:1021A000002313B50446ADF80630A0B100F06EFA76
:1021B00088B9A278637843EA0223ADF80630813B00
:1021C000022B0AD801220DF1060002FA03F3ADF842
:1021D00006300BF098FA02B010BD0DF106000BF0BE
:1021E00081FAF8E738B504460D4600F043FA10B11D
:1021F000032000F045FA29462046BDE8384006F0A5
:102200001EBF08B50BF0E4F80378022B03D10BF0E6
:10221000E7F8007808BD0020FCE7000008B5054C91
:10222000236818780BF02AFB03F062FA052008F007
:102230000EFDF5E7B822002030B5114B8DB0114DE1
:1022400005AC18600FCD0FC495E8070084E80700BF
:102250004FF4E13007F07CFB0CAB13E907008DE88D
:10226000070005AB0FCB0BF0CDFA0023FF22009344
:1022700041F2D001044B054808F0B6FC0DB030BD6A
:10228000B822002048E200081D220008E8110020C2
:1022900008B504F00BFC04F01FFC07F0D5F804F0BF
:1022A000B3FC06F027FB002006F0C2FFBDE80840A3
:1022B000002006F0D9BF08B50BF024FF0028FBD1A1
:1022C00008BD704710B50446FFF7FBFF4CB100F0A6
:1022D000D1F970B100F0E0F9BDE81040032000F042
:1022E000CFB900F0C7F920B9BDE81040012000F0D7
:1022F000E1B910BDF0B50C461546064685B090BB59
:10230000002936D104F0B4FD002000F0D3F90020FC
:1023100000F0D6F9002000F0D9F900F0ABF920B1B7
:1023200000F0BAF9032000F0ABF92E4F3B681B78A0
:10233000A34200D13DB10BF04BF8032303700BF027
:102340004FF8002303703A681470A4B1631ED9B229
:102350000429947098BF5470052B0ED8DFE803F061
:10236000282D32373C190029CCD1012000F0E0F8AB
:10237000C8E70220FAE70BF02BFD2A46214630463B
:1023800001F0D0F82A462146304601F0D7FC05B0CE
:10239000F0BD012318210393029343F68D0302221B
:1023A000CDE900132846104B10490BF027FEE4E757
:1023B00028460F490BF00FFDDFE728460C490BF0CC
:1023C00032FDDAE728460A490BF055FDD5E72846E5
:1023D00008490BF078FDD0E7284607490BF09BFD34
:1023E000CBE700BFB8220020D4E30008EEE30008EA
:1023F000F2E3000802E4000813E4000807B50B4B01
:102400000322196801A8FEF7C5F800209DF80430E2
:1024100063F307009DF8053063F30F209DF8063045
:1024200063F3174003B05DF804FB00BFB82200203F
:102430007047000010B5FFF7FBFF00F06DFA03F0E6
:102440009DF800F08FF8012803D1BDE8104000F09E
:102450008FB800F00FF960B9064C206807F0DBF880
:10246000B0F57A7F05D30BF03DFE10B107F01EF9F1
:10247000206010BDE4110020FFF7DCBF70B50446FA
:1024800060B106F0ABFE0D4B834215D0184606F046
:102490009FFEBDE87040012007F060B80AF098FF89
:1024A0000378022B08D1054D20466B6898472046DB
:1024B000AB68BDE87040184770BD00BF640C0020D9
:1024C00010B501468AB090B106F088FE154C8442E2
:1024D00025D00122144B1A7001F03EFA134807F080
:1024E0005DFC20460AB0BDE8104006F071BE0F4BFF
:1024F0001B78042B0BD12022CDE9000002A8FEF7A7
:10250000BFF8684606F078FE02A806F07DFE074890
:1025100009F071F9054809F087FD01F025FA0AB0C4
:1025200010BD00BFE80C00202536002058490020CF
:102530000B4B012810B50446187002D0022807D0B2
:1025400010BD0020FFF79AFF2046FFF7B9FFF7E71D
:102550000020FFF7B5FF0120FFF790FFF0E700BF75
:10256000780C0020014B1878704700BF780C0020D1
:1025700038B5124B124D1B78124C052B19D12B6814
:1025800013B907F093F82860236813B907F08EF8A1
:102590002060206807F03FF840F6B73398420BD927
:1025A0000023236001F0D0F930B1BDE8384007F0D6
:1025B00047B800232B60236038BD00BF5849002076
:1025C000C0220020BC22002010B50A4C2378052B25
:1025D0000ED1B4F84C309B070AD507F003F838B198
:1025E000204609F097F9BDE81040034808F02FBBDA
:1025F00010BD00BF58490020A086010008B5064B59
:10260000186838B107F007F840F6B733984294BF1E
:102610000020012008BD00BFC022002038B503F013
:10262000D5F9044668B1084B1B78012B09D101F09C
:102630008BF930B1FFF7E2FF054610B1FFF7C4FF99
:102640002C46204638BD00BF780C0020302310B542
:1026500083F3118800F0E6F9002484F3118872B640
:1026600000F030FB00F07CFA04F028FF84F31188BE
:1026700062B610BD014B1878704700BFC52200201C
:10268000014B1870704700BFC5220020014B18781D
:10269000704700BFC422002008B507F007F8014BBF
:1026A000186008BDC8220020014B1870704700BF99
:1026B000CC220020014B1870704700BFCF220020B1
:1026C000014B1870704700BFCE220020014B1870DC
:1026D000704700BFCD220020104BF7B51F6801F0F6
:1026E00079FA0F4E054620B900243470204603B015
:1026F000F0BDFFF783FEC0B218B90A4B1B78042B5C
:10270000F2D034781CB100232C463370EEE7002F52
:10271000ECD004F0A1FBB842E8D3F4E77C0C002035
:10272000CF220020584900200120704710B5FFF744
:10273000FBFF0C4B044610B91870204610BD1C78E6
:10274000002CFAD000221A700AF04EFE0028F4D0B5
:102750000AF03EFE0378022BEFD1FFF799FDFFF759
:10276000AAFDEAE7CE2200200120704710B5FFF74E
:10277000FBFF0C4B044610B91870204610BD1C78A6
:10278000002CFAD000221A700AF02EFE0028F4D095
:102790000AF01EFE0378022BEFD1FFF779FDFFF759
:1027A0008AFDEAE7CD2200201FB501F01DFA04469C
:1027B00018B90024204604B010BD0C4B186806F070
:1027C0002AFF3128F5D9002301930293ADF80C308C
:1027D000074B1B78002BEDD10A22064801A9FDF713
:1027E000A5FEB0FA80F46409E4E700BFC822002027
:1027F000C4220020D84400200120704708B5FFF70C
:10280000FBFF48B1054B186806F005FFC72803D940
:10281000BDE808400BF078BC002008BDC8220020AD
:102820000120704708B5FFF7FBFF38B1044B18686B
:1028300006F0F1FEC72894BF0020012008BD00BFAC
:10284000C8220020704708B506F0FAFEFFF7FAFF2D
:1028500008BD000038B50AF0C7FD70BB224B1B78DD
:10286000022B0CD10BF0B4FA4FF4C874FFF723FD20
:10287000FFF721FD642008F0EAF9013CF8D101F0EE
:1028800079F80023184D194C28782370FFF7DEFEE5
:102890002B78012B17D0022B1FD05BB92278082A86
:1028A00018D80123934040F20512134212D002229D
:1028B0000F4B1A7001F0BCF938BD0AF089FD03789E
:1028C000022BCFD1CAE72278072AF0D8934013F021
:1028D000A80FECD00322064BEBE72278032A08BFAF
:1028E0001346034A1370E5E7C4220020CC220020DF
:1028F000C522002008B506F0ACFE01F0B5F904F0E1
:102900004DFE0A2200210348FDF7BAFEBDE808404B
:1029100004F0AEBACC44002010B5234C2378032B2E
:1029200020D8DFE803F002202A33FFF7D5FE30B1CC
:10293000FFF7B2FE00221D4B1A7001232370FFF730
:10294000F5FE28B1FFF7A8FE0123184A2370137083
:10295000FFF70CFF30B1FFF79FFE0222134B1A70F6
:102960000123237010BDFFF71FFF0028FAD0FFF7E7
:1029700093FEFFF768FF0223F3E7FFF73FFF00280E
:10298000F0D0FFF789FEFFF765FFEBE7FFF74AFF9F
:102990000028E7D0FFF780FEFFF7ACFF0023034AD3
:1029A00023701370DEE700BFC5220020C422002080
:1029B000202938B505460C4610D1FFF7D3FD012874
:1029C00006D122462946BDE83840022007F02CBA3D
:1029D00021462846BDE838400BF066BB38BD0000F4
:1029E00010B5C4B20B2C0CBF02200120FFF75CFE17
:1029F000204601F05BF94FF0FF32014B5A6110BDE8
:102A0000001800400023054A0549C2E900130133BC
:102A1000102B02F10802F8D1704700BF704500206A
:102A2000E12900082DE9F843484B05469A6C42F429
:102A3000C0629A649A6CD3F8902042F4C062C3F8E2
:102A40009020D3F8902022F4C062C3F89020D3F8ED
:102A50009030FFF7D7FF00284FD10F264FF0010825
:102A60003B4F57F8041B4A1C0DD021F00F0901F011
:102A70000F0108FA01F4214605224846240409F012
:102A8000F1FBC9F81840013E16F0FF06E9D1052414
:102A900001274FF030082F4E56F8040B431C28D066
:102AA00000F00F01202207FA01F120F00F0009F0D9
:102AB000D9FB00BF00BF00BF00BF00BF00BF00BF09
:102AC00000BF00BF00BF00BF00BF00BF00BF00BF0E
:102AD00000BF00BF00BF88F3118856F8040C032222
:102AE00000F00F0120F00F0009F0DCFB002383F35E
:102AF0001188013C14F0FF04CED120224FF4006174
:102B0000154809F0AFFB00BF00BF00BF00BF00BF0A
:102B100000BF00BF00BF00BF00BF00BF00BF00BFBD
:102B200000BF00BF00BF00BF00BF302383F3118888
:102B300002220B21084809F0B5FB002383F311881A
:102B4000284601F0C5F8BDE8F88300BF000C01403D
:102B500024E40008BCE400080008004070470000BE
:102B600010B51A4C07F0A2F9A36C40F2A23243F45C
:102B7000C063A3644FF400611548A36C09F072FBB5
:102B8000A36C43F48043A364A36CE36C43F0080399
:102B9000E364E36CA36C43F48053A364A36CE36C21
:102BA00043F01003E364E36CA36C43F00203A364FB
:102BB000A36CA36C43F00803A364A36CA36C43F061
:102BC0001003A364A36CFFF7C9FF10BD000C014004
:102BD000000800404FF0E02238B51369304923F077
:102BE0000103136103232F4A012493620C23D36250
:102BF0002D4B2E48C1F8003400238360C4602C485C
:102C0000C1F80004A1F598418B672A499362D36209
:102C1000A2F56842516100219A0002F1604202F57A
:102C20006142D2F80001CDB2012D94BF002000F026
:102C3000010008B1C2F8804101312029F1D10133EE
:102C4000082BE8D11C4C636843F00073636009F003
:102C5000DBFA144B1A6802F009021A601A6842F48F
:102C60006C3242F004021A6040F2B3321A62134B23
:102C700043F001039847236943F00403236130BF05
:102C80000F4B43F0010398474FF0E022236923F0F4
:102C900004032361136943F00103136138BD00BFCE
:102CA000005001400000014014000003000C0140EE
:102CB00010000003FFFF070000ED00E094E40008AF
:102CC00060E40008FFF786BF2DE9F04103254FF0CF
:102CD00001080B4F57F8044B012224F00F0604F0B3
:102CE0000F0408FA04F421463046013D09F0BAFA0F
:102CF000240415F0FF05B461ECD1BDE8F08100BFFC
:102D0000D0E400084FF0804340229A6180229A610B
:102D10004FF48072C3F8182870474FF080434FF487
:102D200080029A614FF400029A614FF08072C3F8FA
:102D30001828704738B50446FFF7EFFF042C2346E8
:102D400028BF042341F27B42C3EB83339BB29342FF
:102D500014D80922B3FBF2F3114A124D13802B78D9
:102D60002BB91149114808F0C6FB01232B7094B10F
:102D7000BDE838400F210D4808F0CFBB03F52353C1
:102D80000B4A36331B02B3FBF2F303FB03F253434C
:102D9000C3F30F23E0E70548BDE8384008F0CBBB9C
:102DA000D4220020D62200205CE50008F045002057
:102DB000F52801007047000010B505F063F81A4AC5
:102DC0000102138840000133B3FBF1F401FB14331B
:102DD00080B29BB21380B3FBF0F3144A03F07F037D
:102DE000D45C05F013F841F27B42A40100FB04F32C
:102DF0009BB2934205D80920B3FBF0F30C4A138031
:102E000010BD03F523530B4A36331B02B3FBF2F319
:102E100003FB03F253431B0AB3F5803F0CBF4FF68D
:102E2000FF739BB2EAE700BFD2220020DCE4000877
:102E3000D4220020F52801000F4A10B513880F4C4A
:102E400001339BB2138013F0FF030CD10C4B1B78A2
:102E50000BB1FFF7B1FF2388B3F5807F0BD9BDE835
:102E60001040FFF74FBF2288B3EB122F03D1BDE80C
:102E70001040FFF752BF10BDD8220020D4220020FE
:102E8000D02200200022034B1A800122024B1A702C
:102E9000704700BFD2220020D022002008B5FFF7E3
:102EA00013FF04F0B3FFFFF745FF04F0E3FF18B191
:102EB000BDE80840FFF7E6BF08BD00000022014B57
:102EC0001A707047D02200200F4B10B51A78CAB97B
:102ED00001220E4C1A70206040F2A2324FF40071B1
:102EE0004FF0804009F0BEF94FF480614FF0804010
:102EF00040F2A23209F0B6F92146BDE8104004487C
:102F000008F0A8BB10BD00BFDA220020800C002012
:102F1000944700204FF0FF3108B5024808F00DFA41
:102F2000C0B208BDA04700200A464FF0FF3301465B
:102F3000014808F0A7BA00BFC447002008B50348FD
:102F400008F0ADFB80F00100C0B208BD944700203E
:102F500010B5084B4218904207D1064889B2FFF7D6
:102F6000E3FF0120044B187010BD10F8014B03F86B
:102F7000014BF0E7C0440020E822002010B50446D1
:102F80004FF41650FFF7A0FF014B1C6010BD00BFAF
:102F9000E022002037B5264C264DFFF7CFFF002852
:102FA00035D0FFF7B7FF2368012B10D0022B12D0CA
:102FB000ABB9A0F16103DBB21F2BEED81E4A22FA97
:102FC00003F3DB07E9D5012328702360E5E702233B
:102FD00068702360E1E7652804D00A2802D0002346
:102FE0002360DAE703232360124B1A789870662A6D
:102FF0000FD0802A12D0612A07D15B780D2B04D123
:103000000A2802D100220D4B1A700023236003B05E
:1030100030BD0B4A12680AB158789047032209491B
:1030200001A8FDF7B7FA032101A8FFF77DFFECE740
:10303000DC220020C344002021000080E822002080
:10304000E02200206CE50008032901D8FFF780BFCB
:10305000002070470B4B10B51B780B4C13B906F0D2
:1030600025FB2060206840B906F020FB032120608A
:103070000648BDE81040FFF7E7BF06F0CCFA31285C
:10308000F2D810BDE8220020E4220020C044002035
:1030900008B5FFF77FFFBDE80840FFF7DBBF000082
:1030A00037B5032504462A46074901A8FDF772FAF9
:1030B000F02C28BFF024294601A88DF80540FFF721
:1030C00047FF03B030BD00BF64E2000813B503241E
:1030D0000549224601A8FDF75DFA214601A8FFF740
:1030E00037FF02B010BD00BF64E2000813B503242F
:1030F0000549224601A8FDF74DFA214601A8FFF730
:1031000027FF02B010BD00BF70E5000870B504468F
:1031100006F0CCFA0546064E337823B1284606F071
:103120007AFAA04200D970BDFFF7B2FFF4E700BF02
:10313000E82200200E4A431CFF2830B5DBB21446BB
:1031400008BFFF230121657DC8B29D420ED0013129
:103150000B2904F11404F6D10123517DD8B229B111
:1031600001330B2B02F11402F7D1002030BD00BF58
:10317000EC22002008B50B46FF2818BF00F1FF30F5
:10318000114618BFC0B21A4601F016F808BD00007B
:1031900038B504460D46FFF7CDFF68B11422074B42
:1031A000FF2C02FB00304FF000031CBF0134E4B2DF
:1031B000447045740374012038BD00BFEC22002028
:1031C0002DE9F0410446884616461F46FFF7B2FF38
:1031D00090B114225043094BFF2C03EB00051F5400
:1031E0004FF000034FF001001CBF0134E4B26C70DB
:1031F00085F80280AE602B74BDE8F081EC220020DF
:103200002DE9F0410446884617461E46FFF792FF17
:10321000A0B1142250430A4B9DF818201D181A54CF
:10322000079B0120EB600023FF2C1CBF0134E4B29C
:103230006C7085F81180AF70AE602B74BDE8F081C2
:10324000EC2200202DE9F843002502272E464FF0FE
:1032500001082E4C607880B394F81090B9F1010FFA
:1032600033D0B9F1020F0DD0B9F1000F25D1A378F9
:103270001BB30122617CFFF77DFF06F017FA606047
:1032800027741AE00122617CFFF774FF6068A0B127
:1032900006F0C1F9A36898420FD306F007FA237825
:1032A000606043B184F81090A378FBB9E3681BBB5E
:1032B0002674667001E084F8108001350A2D04F14F
:1032C0001404C7D10120BDE8F8830022617CFFF718
:1032D00051FF60680028F0D006F09DF9A36898427D
:1032E000EBD306F0E3F927746060DDE7013BDBB266
:1032F000A370002BE1D1D9E76078FF281CBF00F153
:10330000FF30C0B298470028D2D0B9E7EC220020A5
:10331000014B1878704700BFC8230020014B18608C
:10332000704700BFCC230020F0B5044685B00629C5
:1033300000F2B180DFE801F0040A6154549B9B0065
:103340000024564B1C60204605B0F0BD534E544F30
:103350003568002D30D106F0A9F942F21073013C16
:1033600030603B60032C00F29680DFE804F0020A34
:10337000121D4C4B00950193FA230122FF211046A8
:103380000EE0484B00950193FA230122FF21022011
:1033900006E0444B00950193FA230122FF2103200C
:1033A000FFF72EFF0124CEE73E4B00950193FA2351
:1033B0000122FF210420F3E7284606F02CF93B68A0
:1033C000984254D2FFF7CEF80228EBD10AF000F869
:1033D0000378022BE6D1002303223360324B1A70AC
:1033E000002340F6B83201212046FFF7E9FE002312
:1033F0002A4A13602C4A1370D4E7284E35680DBB57
:1034000006F054F9013C3060032C44D8DFE804F0A6
:1034100002080E14234B009501934FF4FA73ACE7A6
:10342000204B009501934FF4FA73AEE71D4B0095C6
:1034300001934FF4FA73B0E71A4B009501934FF4E0
:10344000FA73B5E7284606F0E6F84EF65F23984291
:103450000DD8FFF787F80228A4D109F0B9FF037847
:10346000022B9FD10023042233600F4BB7E70023C8
:103470000A4A13600C4A1370FEF7C0FFC0B238B995
:1034800000F062FA044618B90120FFF719F95AE76B
:103490000120FFF70FF9002455E700BFCC230020DF
:1034A000880C0020AD340008C823002008B5024B6A
:1034B0001978FFF739FF08BDC823002073B5002431
:1034C0000D460646234622462146019400940120DB
:1034D000FFF796FE234622462146019400940220DF
:1034E000FFF78EFE234622462146019400940320D6
:1034F000FFF786FE234622462146019400940420CD
:10350000FFF77EFE054B29461C60054B30461D70BB
:10351000FFF70AFF012002B070BD00BFCC230020DE
:10352000C823002038B50D461446FFF71BF80228C3
:1035300027D109F04DFF0378022B22D0691E0529FF
:1035400025D8DFE801F0030C122424182CB1022145
:103550000120BDE83840FFF7B1BF0121F8E714B101
:1035600002210220F5E70121FBE714B1022103202B
:10357000EFE70121FBE714B102210420E9E7012173
:10358000FBE7FEF7EFFF012801D10021E1E738BD9D
:1035900007B58DF806100421B3238DF805000DEB57
:1035A00001008DF804308DF8072009F0F3FE03B018
:1035B0005DF804FBB42307B5022101A8ADF804307F
:1035C00009F0E8FE03B05DF804FB00000023194693
:1035D000034A0133092B516002F8081BF9D17047E7
:1035E000D023002008B5086840F480330B6080B217
:1035F000012100F04DFE002008BD00002DE9F04142
:10360000074615460846224CBAB1002304EBC30214
:103610009289974203D100252846BDE8F081013305
:10362000082BF3D1012604EBC608D8F80430F200C9
:103630007BB10136092EF6D1EDE7012504EBC50873
:10364000B8F80430EE009F420FD00135092DF5D1B6
:10365000E1E704320F49224404F0B6FD0028DAD035
:10366000C8F8047004F83600D6E714F8350004F002
:10367000B9FDD8F80400C30303D5002180B200F0DF
:1036800007FE0023264404F8353073600125C3E7A4
:10369000D0230020E535000808B520224FF4007142
:1036A000054808F0DFFDBDE8084020224FF48041C6
:1036B000024808F0D7BD00BF0004004000080040E9
:1036C00037B504462E4D002843D005F0EFFF2860A3
:1036D000FEF794FEC0F307238DF80530C0F30743CF
:1036E0008DF80630274B8DF804001969C2B28D059C
:1036F00003D525490969490433D51B699D0503D5BF
:10370000214B1B6959042ED41E4B1B699B052CD4DD
:103710001D4B1B6913F4804F0CBF00230223511E65
:10372000052924D9002A0CBF03200220174A14B906
:103730001178994202D11C1A18BF0124022B137070
:10374000134A16D0032B16D0012B16D10423137065
:1037500004E0286805F05FFF3228B6D8204603B0A1
:1037600030BD0323DBE70123D9E70023D7E701209E
:10377000DCE70523EBE70123E9E70023E7E700BFE8
:103780001C240020000400400008004018240020F1
:103790001924002030B587B0FFF792FF08B9002444
:1037A00015E0184D287801F0A1FE04460028F6D057
:1037B0002B78013B032BF2D8DFE803F0020C161B39
:1037C000FEF71CFE00221146C0B2FEF793FD204614
:1037D00007B030BDFEF712FEC5B2FEF70FFE0022A5
:1037E000C0F307212846F0E7FEF708FE0022062175
:1037F000EAE7FEF703FEC5B2FEF700FE0022C0F3C3
:103800000741EFE719240020014B1878704700BFEB
:103810001924002010B5114B1C78012C18D102225C
:1038200021461A70FF2023464FF4FA72FFF7C8FCB6
:1038300020460B490AF0CFFA204609490AF0F3FA6C
:10384000204607490AF017FB03F05CFA204610BD3A
:10385000022C01D105F09EFF0020F8E73224002061
:10386000F2E30008044A0548136803F0D003184344
:10387000106003F074BA00BFC84400200B000101BF
:1038800008B503F069FA084B186058B9FFF7EAFF6A
:10389000064B1A7842F080021A701888BDE808407A
:1038A00003F056BA08BD00BFC8440020D64400202B
:1038B00010B5104C4FF481724021204608F0D2FC24
:1038C00000220D48114607F05BFE82224FF4807102
:1038D0004FF0804008F0C6FC00220848114607F06F
:1038E0004FFE01228021204608F0BCFC4FF400036B
:1038F000A36110BD00040040004600201C460020CB
:1039000010B500210D4807F04BFE00210C4807F0D0
:1039100047FE40220B4C1146204608F0A3FC4022F3
:103920004FF480714FF0804008F09CFC2046BDE8C9
:1039300010404022802108F095BC00BF00460020C6
:103940001C46002000040040024B1869C0F3C03040
:10395000704700BF000800404FF40032014B9A61ED
:10396000704700BF000400400222014B9A6170477B
:103970000004004020224FF400714FF0804008F016
:1039800071BC00001FB54FF48023384804218361C7
:10399000012208F067FCFFF7B3FF354B1B781907CE
:1039A00006D50A20FFF77CFB4FF47A70FFF7AEFBD9
:1039B000FEF724FDC0F307238DF804008DF80530D1
:1039C000C0F30743C0B28DF8063010B10222294B74
:1039D0009A61FEF713FDC0F307238DF808008DF8F8
:1039E0000930C0F30743C0B28DF80A3068B9FEF75A
:1039F0004DFE012803D0204B1B691A0405D400207A
:103A0000FEF75EFD0120FEF75BFEFEF7F7FCC0F35C
:103A100007238DF80C008DF80D30C0F30743C0B2BA
:103A20008DF80E3018B9144B1B691B0418D42022D2
:103A30004FF480614FF0804008F014FC00BF00BFDD
:103A400000BF00BF00BF00BF00BF00BF00BF00BF7E
:103A500000BF00BF00BF00BF00BF00BF00BF00BF6E
:103A600005B05DF804EB05F0BBBD00BF000C0040E5
:103A7000C844002000040040000800401FB540F288
:103A8000A2324FF400714FF0804008F0EBFB40F29F
:103A9000A2324FF480614FF0804008F0E3FBFFF763
:103AA00007FF1C4B1B781B0701D5FFF70FFB1A4BB9
:103AB0001B685BB9194B1B78012B07D0184B1B787F
:103AC00013F0010018BFD808FFF734F9FFF77EFDA7
:103AD000FEF794FCC0B248B912480378012B05D117
:103AE0004FF40032104B9A6106F058F9FEF786FC4D
:103AF000C4B2FEF783FC0022C1B22046FEF7FAFBF7
:103B000020220421094808F0ADFB04B0BDE81040B4
:103B100005F067BDC8440020542400206424002020
:103B2000EC4400205849002000040040000C0040F4
:103B300010B5FFF7ADFA224B224C1B6913F4007F3E
:103B400032D1214B1B6958042ED5236813B905F0D7
:103B5000ADFD2060206805F05EFD092818D905F04C
:103B6000A5FD174B20601B69990511D4164C2369DC
:103B70005A040DD5FEF77EFD50B904F013FA2369FF
:103B80001B0402D40120FEF79BFD01220F4B1A708B
:103B90000F4B186890B105F03EFDB0F5FA7F0DD3DC
:103BA000BDE8104001F09EBF05F080FD074B20608E
:103BB0001B78012BECD105F0EDFDE9E710BD00BF4E
:103BC0000004004058240020000800406424002025
:103BD0003C24002007B5FEF711FCC0B2003818BF26
:103BE000012003B05DF804FB0E4A08B5136913F415
:103BF000004FC3F3C0310C4B0AD0022119700B499E
:103C00000969890507D5002004F0CCF9002001E0FE
:103C10000120197008BD1269520444BF01221A70B4
:103C2000F1E700BF000800406424002000040040C9
:103C300008B5FEF72BFD012806D1FEF71BFD032872
:103C400002D105F0A7FDFEE7FEF714FD032809D118
:103C5000BDE8084040F2A2324FF400714FF08040BE
:103C600008F000BB08BD000000230D4A13B50D4C41
:103C700013700D4A2078137001F0C6FF48B948F25E
:103C8000A703022101A8ADF8043009F083FB02B0BC
:103C900010BD207801F0B8FF0128F8D1EFE700BF90
:103CA00064240020722400203724002009380628CC
:103CB0000CD8DFE800F007090B0B0B07040003200A
:103CC000FEF7F2BC0720FBE70120F9E77047000090
:103CD00070B50446302585F3118801220F21144860
:103CE00008F0E0FA002686F3118885F31188012296
:103CF0000921104808F0D6FA86F3118885F3118857
:103D000001220E210A4808F0CDFA86F311886CB919
:103D1000094B1B781B0709D585F3118802220A215C
:103D20004FF0804008F0BEFA84F3118870BD00BFE8
:103D30000008004000040040C84400200C4B07B5B8
:103D4000186803F00CF8FEF759FBC0B2062805D13D
:103D5000FF2003B05DF804EB09F01EBDFEF74EFB3B
:103D6000C0B208B19E20F4E703B05DF804FB00BFC9
:103D7000C844002047F60D6300B598428FB00FD8B5
:103D8000B0F5FC4F0ED847F2967398426ED047F2CA
:103D9000977398427ED047F28473984200F0A380D4
:103DA000012024E0A0F5FC4001380C28F8D801A33C
:103DB00053F820F0E93D00081D3E0008453E00088C
:103DC000BD3E0008A13D0008A13D0008A13D00083E
:103DD000A13D0008A13D0008A13D0008A13D00084B
:103DE000A13D00080F3F00084B791BB900200FB020
:103DF0005DF804FBFEF702FBC0B20128F6D0FFF726
:103E000003FD042802D010F0FD0FEFD1FEF7F6FA03
:103E100000220121C0B2FEF76DFAE7E74B79002BD3
:103E2000E4D0FEF7EBFAC0B20228DFD0FFF7ECFCDB
:103E3000042802D010F0FD0FD8D1FEF7DFFA0022DF
:103E40000221E7E74B79002BD0D0FEF7D7FAC0B2BA
:103E50000328CBD0FFF7D8FC042802D010F0FD0FC8
:103E6000C4D1FEF7CBFA00220321D3E74B79002B14
:103E7000BCD0FEF7C3FAC0B20428B7D0FFF7C4FC29
:103E8000042802D010F0FD0FB0D1FEF7B7FA0022DF
:103E90000421BFE74B79002BA8D0FEF7AFFAC0B2E0
:103EA0000528A3D0FFF7B0FC042802D010F0FD0FC6
:103EB0009CD1FEF7A3FA00220521ABE74B79002B3A
:103EC00094D0FEF79BFAC0B206288FD0FFF79CFC77
:103ED000C31EDBB2012B01D9002887D1FEF78EFA71
:103EE0000022062196E74B79002B3FF47FAFFEF7C7
:103EF00085FAC0B200283FF479AFFFF785FC0128AE
:103F00003FF674AFFEF77AFA0022114682E74B794A
:103F1000024A1370024A137068E700BF3824002079
:103F20005C2400200F4A10B51388044605339BB269
:103F3000B3F5FF7F88BF0523138013881178DB0555
:103F400044BFC943C9B2C1EB0121C1F30721FFF747
:103F50001FF901232046BDE8104019221946FFF73A
:103F60002FB900BF222400202DE9F047054609F0B3
:103F700033FA824B90F800901B78814C6BB3814BE5
:103F80001B7853B3236813B905F090FB206002F04F
:103F900069FF7D4E3368984205D002F063FF3060C0
:103FA00005F084FB2060002003F0FCFFFF21284681
:103FB000FFF7EEF80023FA2201212846FFF700F967
:103FC0000022724B1A800422714B1A7005F06EFBAE
:103FD000FFF7A4F90120BDE8F0876E4B6E491A691E
:103FE0006E4BC2F3C0321A706D4B6E4E1B69C3F339
:103FF00080030B70002A40F0B280A9F106030E2B5B
:104000003260DFF88C81614E674F5FD9B9F1050FDF
:1040100000F2A080236813B905F048FB206002F08D
:1040200021FFDFF888A1DAF80030984206D002F0CC
:1040300019FFCAF8000005F039FB2060206805F080
:10404000EAFA42F21073984207D9B9F1030F04D883
:10405000002301202360FEF739FB96212846FFF755
:1040600097F80023FA2201212846FFF7A9F8002338
:10407000338004235BE0336813B905F017FB30602D
:10408000306805F0C8FAB0F5FA6F19D3FF21284659
:10409000FFF77EF801234FF4967219462846FFF782
:1040A0008FF80022394B1A800122394B1A703E4B8F
:1040B0001A78662A07D06620187009F06DFB02E0B6
:1040C0002846FFF72FFF0023236083E73849338812
:1040D0000878B8BB02339BB2952B338003D90123F8
:1040E0000B709623338031782368C1EB0121C1F333
:1040F000072613B905F0DAFA206002F0B3FEDFF804
:10410000B490D9F80030984206D002F0ABFEC9F85E
:10411000000005F0CBFA206031462846FFF738F85A
:104120000123192219462846FFF74AF8032388F885
:1041300000303B78652B3FF44DAF6520387009F0B7
:104140002BFB47E7023B9BB2022B33809CBF0A70DC
:104150003280C8E72260328088F80020E9E7002B2F
:1041600089D128463360FFF7DDFE0222084B1A7022
:104170000D4B1A78642AA6D064209DE736240020CF
:104180002C24002035240020482400202224002054
:104190002024002000080040282400208C0C00204F
:1041A000000C00402424002037240020402400205C
:1041B0003124002044240020042870B50C46154604
:1041C00009D868B12C4B1A782C4B002A3BD04FF4FD
:1041D00000029A610CE0FF283DD00124204670BD0A
:1041E000274B1B7833B100221146264807F0C8F947
:1041F0000024F3E7244E337843B9002211462148C6
:1042000007F0BEF9002221481146EFE7FEF732FA27
:1042100018B1FEF72FFA0128EFD13378013B032BB9
:10422000E6D8DFE803F002020707002CE5D02A46B3
:104230000021E4E72CB12A460021144807F0A0F938
:10424000D1E70022F8E711B180219961D0E74FF45E
:1042500000029A61C2E739B15F2200210B4807F0E2
:104260008FF9FEF74FFDC3E70A46084807F088F9C3
:10427000FEF753FDB2E700BF6424002000040040B5
:104280003224002000460020202400201C4600206C
:1042900047F6116310B5984290B00ED8B0F5FC4FB8
:1042A0000ED847F2977398425DD047F60343984281
:1042B00067D047F2967398424ED0012010B010BDDF
:1042C000A0F5FC4001381028F7D801A353F820F0DE
:1042D00015430008334300084B43000875430008AA
:1042E000BB420008BB420008BB420008BB420008BA
:1042F000BB420008BB420008BB420008BB420008AA
:10430000BB420008BB420008AB430008BB420008A8
:10431000BF4300080029D0D0FEF770F8C4B2012CCA
:10432000CBD1FEF76BF822462146C0B2FDF7E2FF83
:10433000C3E70029C1D0FEF761F8C4B2022CBCD19A
:10434000FEF75CF801222146EFE70029B5D0FEF721
:1043500055F8C4B2032CF2E70029AED0FEF74EF8B0
:10436000C4B2042CEBE70029A7D0FEF747F8C4B28B
:10437000052CE4E70029A0D0FEF740F8C4B2062CD3
:10438000DDE7002999D001220024FF211E4B0846B9
:104390001A701E4B0222019300944FF4FA73FEF739
:1043A0002FFF204603F0FEFD87E7002985D062201D
:1043B00009F0F2F9FEF722F801220221B5E70029FF
:1043C0003FF47BAF124C237883F00802C2F3C002A3
:1043D00062F3C3032370206802F0C1FC23781B073B
:1043E00008D5FEF773FE4FF47A70FEF78FFEFEF7E6
:1043F0006DFE62E7FEF77AFE4FF47A70FEF786FEF6
:10440000FEF774FE59E700BF32240020153800087B
:10441000C8440020F7B505460E46FEF779FF01387F
:10442000C0B2012803D805F041F9FEF777FFCD4F60
:104430003B7853B1CC4B1B783BB1A5F11E03022B4B
:1044400003D90024204603B0F0BDC84C237843B103
:10445000FEF710F90028F4D0002303202370FEF7A4
:104460000FF9C34B1B699C0503D4C24B1B6958044D
:10447000E7D447F611639D420CBF4FF4FA6140F652
:10448000B83128467279FFF7B9F83146284601F06D
:10449000A3FA0028D5D031462846FFF76BFC044626
:1044A0000028CED0652D00F2CD801D2DCAD91E3D2D
:1044B000472DC7D801A353F825F000BFDD4C0008F5
:1044C000414D0008994D00083B4E0008674E00081A
:1044D000B74E0008074F0008334F00085F4F000831
:1044E0008B4F000845440008454400084544000837
:1044F0004544000845440008B74F0008E34F000852
:104500004544000845440008454400084544000867
:104510004544000845440008454400084544000857
:10452000454400084544000845440008A1480008E7
:10453000F348000845490008AB490008FD49000858
:10454000794A0008E94A00083B4B00088D4B0008F7
:10455000DF4B0008314C0008874C0008015300086D
:104560004544000845440008454400084544000807
:1045700045440008454400084544000845440008F7
:1045800045440008454400084544000845440008E7
:1045900045440008454400084544000845440008D7
:1045A00045440008454400084544000845440008C7
:1045B00045440008454400084544000845440008B7
:1045C00045440008454400084544000845440008A7
:1045D00045440008454400082D520008A5F5FC4557
:1045E000142D3FF62FAF01A353F825F041470008E3
:1045F0004544000845440008454400084544000877
:104600004544000845440008454400084544000866
:10461000454400084544000857520008C3510008AB
:10462000454400088D5000084B530008775200089D
:104630004146000815510008454400087D4800081F
:104640000024FFE647F603039D4200F0048563D88B
:10465000BE2D37D8A72D7FF6F5AEA83D162D3FF617
:10466000F1AE01A353F825F029480008614800087D
:10467000454800080D480008D54700084544000893
:10468000F147000845440008454400084544000837
:104690004544000845440008B9470008454400085F
:1046A00045440008454400084544000845440008C6
:1046B0004544000845440008454400089D4700085B
:1046C00081470008B5F5A44F00F0598545F2022353
:1046D0009D427FF4B7AE7379002B00F0AD81264C7C
:1046E000207801F091FA022800F0A681207801F0EC
:1046F0008BFA032800F0A081022001F0D1F90020FC
:1047000001F073FE48F2A713022101A8ADF80430AE
:10471000002408F03FFE95E647F614639D423FF6FD
:1047200091AEB5F5FC4FBFF459AF47F604039D4277
:1047300000F0738447F603439D4208BF002481E6DE
:104740007379002B3FF47DAE0C4A0024137883F07C
:104750002001C1F3401161F345131370106802F09A
:10476000FEFA6FE636240020352400206424002061
:10477000000400400008004072240020C8440020CB
:10478000A94B1B7899067FF55DAE7379002B00F07D
:10479000CB823A2001F0D4F8002453E6A24B1B78D8
:1047A0009A067FF54FAE7379002B00F0EF823B2025
:1047B00001F0C6F8002445E69B4B1B789B067FF56D
:1047C00041AE7379002B00F048833D2001F0B8F82A
:1047D000002437E6944B1B789F067FF533AE737940
:1047E000002B00F0A083402001F0AAF8002429E665
:1047F0008D4B1B789D067FF525AE7379002B00F05D
:10480000A883412001F09CF800241BE6864B1B780E
:1048100098067FF517AE7379002B00F0B083422025
:1048200001F08EF800240DE67F4B1B7899067FF58A
:1048300009AE7379002B00F0B883432001F080F8B3
:104840000024FFE5784B1B789A067FF5FBAD737962
:10485000002B00F0C083442001F072F80024F1E541
:10486000714B1B789B067FF5EDAD7379002B00F043
:10487000CE83452001F064F80024E3E57579002D2E
:104880003FF4E0AD684A2C46137883F01001C1F381
:10489000001161F304131370106802F060FAD1E59F
:1048A000614B1B78DF067FF5CDAD604C73792078C6
:1048B0007BB101F0A9F900283FF46BAF207801F03B
:1048C000A3F901283FF465AFBE2001F039F80024B8
:1048D000B8E501F099F9002800F02682207801F06F
:1048E00093F9012800F02082BE2001F03FF8002457
:1048F000A8E54D4B1B78DD067FF5A4AD4B4C7379D5
:1049000020787BB101F080F900283FF450AF207887
:1049100001F07AF901283FF44AAFBD2001F010F808
:1049200000248FE501F070F9002800F02F82207834
:1049300001F06AF9012800F02982BD2001F016F883
:1049400000247FE5384B1B78D8067FF57BAD374CCC
:1049500073792078A3B101F057F920B1207801F0E4
:1049600053F9012804D13C2000F0EAFF002469E556
:10497000E32000F0E5FF2B2000F0E2FF002461E5DA
:1049800001F042F920B1207801F03EF9012804D16C
:104990003C2000F0EBFF002454E5E32000F0E6FFAC
:1049A0002B2000F0E3FF00244CE51F4B1B78D906B9
:1049B0007FF548AD1D4C737920787BB101F024F967
:1049C00000283FF402AF207801F01EF901283FF4DF
:1049D000FCAEB42000F0B4FF002433E501F014F97C
:1049E000002800F03A82207801F00EF9012800F04A
:1049F0003482B42000F0BAFF002423E50A4D2B785E
:104A0000DA067FF51FAD094C737920783BB301F0CE
:104A1000FBF820B1207801F0F7F8012808D13E20FA
:104A200000F08EFF00240DE5C84400207224002011
:104A300003F0C2F9C30801D1002403E52B7803F089
:104A40000603022B01D0042BF6D103F0B5F9C0F315
:104A5000C70003F0A7FA002403F032FAF2E401F0F1
:104A6000D3F820B1207801F0CFF80128E4D13E201E
:104A700000F07CFF0024E5E4AE4D2B78DB067FF5EB
:104A8000E1ACAD4C737920780BB301F0BDF820B1E7
:104A9000207801F0B9F8012804D13F2000F050FF40
:104AA0000024CFE403F0B2F90428C5D02B7803F03A
:104AB0000603022B01D0042BBED103F07DF9C0F315
:104AC000C70003F06FFA002403F0E2F9BAE401F042
:104AD0009BF820B1207801F097F80128ACD13F2055
:104AE00000F044FF0024ADE4924B1B78DF067FF515
:104AF000A9AC914C737920787BB101F085F800283E
:104B00003FF471AE207801F07FF801283FF46BAEDE
:104B1000AC2000F015FF002494E401F075F80028A3
:104B200000F00182207801F06FF8012800F0FB818D
:104B3000AC2000F01BFF002484E47E4B1B78DD06D4
:104B40007FF580AC7C4C737920787BB101F05CF808
:104B500000283FF456AE207801F056F801283FF4C3
:104B600050AEAE2000F0ECFE00246BE401F04CF8F7
:104B7000002800F0EE81207801F046F8012800F0CE
:104B8000E881AE2000F0F2FE00245BE4694B1B7864
:104B9000D8067FF557AC684C737920787BB101F06B
:104BA00033F800283FF43BAE207801F02DF80128BF
:104BB0003FF435AEAB2000F0C3FE002442E401F028
:104BC00023F8002800F0DB81207801F01DF801288F
:104BD00000F0D581AB2000F0C9FE002432E4554B33
:104BE0001B78D9067FF52EAC534C737920787BB1B6
:104BF00001F00AF800283FF420AE207801F004F814
:104C000001283FF41AAEA82000F09AFE002419E40F
:104C100000F0FAFF002800F0C881207800F0F4FFCF
:104C2000012800F0C281A82000F0A0FE002409E4C1
:104C3000404B1B78DA067FF505AC3F4C7379207842
:104C400083B100F0E1FF00283FF405AE207800F0CA
:104C5000DBFF01283FF4FFADAA2000F071FE002425
:104C6000FFF7F0BB00F0D0FF002800F0B4812078FF
:104C700000F0CAFF012800F0AE81AA2000F076FE05
:104C80000024FFF7DFBB2B4B1B78DB067FF5DAAB8D
:104C9000294C7379207883B100F0B6FF00283FF4E7
:104CA000E8AD207800F0B0FF01283FF4E2ADA92084
:104CB00000F046FE0024FFF7C5BB00F0A5FF00286A
:104CC00000F0A581207800F09FFF012800F09F816F
:104CD000A92000F04BFE0024FFF7B4BB3B789BB14A
:104CE000164B1B7883B17379002B3FF4A5AEFEF70A
:104CF00061FC602008F050FD012205210020FEF734
:104D000047FC0024FFF79EBB0A4B1B78DF067FF5AC
:104D100099AB727903F020031AB1002B3FF439AD3F
:104D2000D2E5002B7FF4E0AD3A2000F01FFE002416
:104D3000FFF788BBC84400207224002035240020DF
:104D40003B789BB1AD4B1B7883B17379002B3FF45B
:104D500073AEFEF72FFC602008F01EFD0122052136
:104D60001320FEF715FC0024FFF76CBBA44B1B7847
:104D7000DD067FF567AB727903F020031AB1002BD3
:104D80003FF415ADC9E5002B7FF4D7AD3B2000F013
:104D9000EDFD0024FFF756BB3B789BB1974B1B788A
:104DA00083B17379002B3FF447AEFEF703FC60201C
:104DB00008F0F2FC012205212720FEF7E9FB002480
:104DC000FFF740BB8E4B1B78D8067FF53BAB727963
:104DD00003F02003C2B1002B3FF4C5AD894C20780D
:104DE00000F012FF02283FF4C3AD207800F00CFF62
:104DF00003283FF4BDADE02000F0A2FD522000F0FA
:104E00009FFD0024FFF71EBB002B3FF4C1AD7D4C7E
:104E1000207800F0F9FE02283FF4BFAD207800F0C2
:104E2000F3FE03283FF4B9ADE02000F09FFD5220CF
:104E300000F09CFD0024FFF705BB714B1B78D906E1
:104E40007FF500AB727903F020031AB1002B3FF419
:104E5000BCACBEE5002B7FF4CCAD3D2000F086FD60
:104E60000024FFF7EFBA664D2B78DA067FF5EAAA41
:104E7000727903F02003D2B1002B3FF4D0AD02F0E1
:104E80009BFFC3083FF4D8AD2B7803F00603022B39
:104E900002D0042B7FF4D0AD02F08EFFC0F3C70028
:104EA00003F080F8002403F00BF8FFF7CBBA002BD7
:104EB0007FF4C2ADDBE5524D2B78DF067FF5C2AA49
:104EC000727903F02003D2B1002B3FF4E6AD02F07B
:104ED0009DFF04283FF4B0AD2B7803F00603022BAE
:104EE00002D0042B7FF4A8AD02F066FFC0F3C70028
:104EF00003F058F8002402F0CBFFFFF7A3BA002B11
:104F00007FF49AADEBE53E4B1B78DD067FF59AAA60
:104F1000727903F020031AB1002B3FF464ACF7E57B
:104F2000002B7FF405AE402000F020FD0024FFF7A9
:104F300089BA334B1B78D8067FF584AA727903F0BF
:104F400020031AB1002B3FF45CAC0AE6002B7FF47F
:104F500018AE412000F00AFD0024FFF773BA284B79
:104F60001B78D9067FF56EAA727903F020031AB177
:104F7000002B3FF454AC1DE6002B7FF42BAE4220F7
:104F800000F0F4FC0024FFF75DBA1D4B1B78DA0635
:104F90007FF558AA727903F020031AB1002B3FF471
:104FA0004CAC30E6002B7FF43EAE432000F0DEFC3C
:104FB0000024FFF747BA124B1B78DF067FF542AAA1
:104FC000727903F020031AB1002B3FF444AC43E69E
:104FD000002B7FF452AE442000F0C8FC0024FFF701
:104FE00031BA074B1B78DD067FF52CAA727903F0E6
:104FF00020034AB1002B3FF43CAC58E63524002096
:10500000C844002072240020002B7FF461AE4520AC
:1050100000F0ACFC0024FFF715BAB64D2B789806CB
:1050200004D57379002B7FF438AD58E502F0EEFE1D
:1050300004283FF401AD2B7803F00603022B02D0C5
:10504000042B7FF4F9AC02F0B7FEC0F3C70002F006
:10505000A9FFFFF7F7B9A74D2B78990604D5737907
:10506000002B7FF4DCAC02E502F0A6FEC0103FF49A
:10507000E3AC2B7803F00603022B02D0042B7FF461
:10508000DBACC0B202F08EFFFFF7DCB97379002B06
:105090003FF4D2AC0322974C2178C1F34103013392
:1050A000B3FBF2F202EB42029B1A0A4663F342029E
:1050B0002270206801F053FE02F07EFE2378C510B6
:1050C000C3F34102012A1AD0022A05D08AB902F09C
:1050D0002BFF0024FFF7B6B915B9022002F078FFC4
:1050E00002F0ACFE002402F097FE02F003FFFFF78F
:1050F000A9B96FF342032370206801F030FE15B99F
:10510000022002F065FF02F099FE002402F0F2FE98
:10511000FFF798B97379002B3FF48EAC754C237868
:10512000227813F0060F0FBF0223C3F341030333AA
:1051300003F0030363F342022270206801F00FFEC4
:1051400002F03AFE2378C510C3F34102012A09D0C8
:10515000022AC1D0002ABAD06FF34203237020681C
:1051600001F0FDFD15B9022002F032FF02F066FEEB
:10517000002402F0D9FE02F0BDFEFFF763B9737997
:10518000002B3FF459AC5C4C207800F03DFD022828
:1051900010D1002000F084FC002001F026F948F234
:1051A000A703022101A8ADF80430002408F0F2F8AA
:1051B000FFF748B9207800F027FD03287FF43CACC6
:1051C000E7E74D4C207800F01FFD02281CD0207826
:1051D00000F01AFD032817D07479E02054B100F0D4
:1051E000AFFBE32000F0ACFB142000F0A9FB00248F
:1051F000FFF728B900F0BAFBE32000F0B7FB14205A
:1052000000F0B4FBFFF71EB97479E3203CB100F065
:1052100097FB0F2000F094FB0024FFF713B900F078
:10522000A5FB0F2000F0A2FBFFF70CB9324D287848
:1052300000F0EAFC02283FF405A9287800F0E4FC1D
:1052400003283FF4FFA82D4B1C7884F01004C4F30E
:105250000014FFF7F7B8274A73791278920604D53D
:10526000002B7FF480ABFFF793BB234C2078002BFF
:105270003FF4CFADB4E5204C207800F0C5FC022807
:1052800009D1747924BBE32000F096FD062000F0DC
:1052900093FDFFF7D7B8207800F0B6FC0328F0D0D4
:1052A000FDF7ACF8C0F307238DF8053010F0FF04CC
:1052B000C0F307438DF804008DF8063015D0CF23D6
:1052C0006846ADF80030002408F00CFAFFF7BAB8D1
:1052D000E32000F029FD062000F026FD4FF4FA60DF
:1052E00005F0B5FC0024FFF7ADB8CF2003F0BCFFFC
:1052F000FFF7A8B8C844002072240020D64400203C
:10530000174D287800F080FC02283FF49BA82878ED
:1053100000F07AFC03283FF495A87479E32054B197
:1053200000F00EFBE12000F00BFB202000F008FB5A
:105330000024FFF787B800F019FBE12000F016FB0E
:10534000202000F013FBFFF77DB87379002B3FF4AA
:1053500073AB622008F020FA0024FFF773B800BF97
:1053600072240020F7B5244E0546307800F04CFC3E
:105370000128044605D0307800F046FCC11E4C429E
:105380004C411E4B1B781A0704D403B0BDE8F04013
:10539000FDF7ACBEFDF732F8C0B2E8B9184F3B7864
:1053A000052B19D1FDF72AF9164E10B9306003B05C
:1053B000F0BD306860B9B7F84C309B0705D5104890
:1053C00006F0A8FA104805F042FC04F06FF9EDE78A
:1053D00004F021F9C728EED845B12CB1BD2003B0A7
:1053E000BDE8F04000F0E8BAA920F8E70CB1BE2013
:1053F000F5E7AA20F3E700BF73240020C84400208B
:105400005849002068240020A0860100F8B5324EDB
:1054100004463068314D002836D10023304A2B70C5
:105420001370304A13702B78A34227D02E4F3B784D
:105430003BB1FDF71FF930B3002303203B70FDF7AC
:105440001FF92B78A34229D22549264891F900203B
:10545000002A1EDD0278013A52B20270033201DAEC
:10546000FC220A70E31ADBB2012B07D091F900305D
:10547000033302DA0020FFF775FF2C7001F0F8FC0F
:1054800004F014F93060F8BD04F0C5F83128C4D830
:10549000C9E7013A0A7000220270E3E7EED9104929
:1054A000104891F90020002A11DA0278013252B234
:1054B000032A027001DD04220A701B1BDBB2012BE0
:1054C000DCD091F90030032BD7DD0120D3E7013286
:1054D0000A7000220270F0E7602400205D240020A2
:1054E00030240020332400206424002008B501F07B
:1054F000BFFC012008BD000037B5FDF7BBF81D4C0F
:1055000070BBFDF705FF58BB257875B14FF400025D
:10551000194B9A614FF080729A61FDF7F9FE38B32A
:1055200003B0BDE8304001F0A3BCFCF767FFC0F357
:1055300007238DF8013010F0FF01C0F307438DF809
:1055400000008DF802300FD007F042FF0378022BE5
:1055500006D0FCF753FF2A46C1B22846FCF7CAFE24
:105560002378002BD9D0D1E70120FDF7A7FFF7E77B
:1055700003B030BD64240020000400407FB52C4EF1
:10558000306848B90020FEF705F9FFF7B5FF04B011
:10559000BDE87040FDF756BE04F03DF863283AD9E7
:1055A00000230120336008F007FC012008F00AFC0A
:1055B0000120FEF7EFF8054680B9FCF71FFFC0B2E7
:1055C00060B1FCF71BFFC4B2B4FA84F4FCF716FF19
:1055D0006409C1B22A462046FCF78CFE02F002FCA8
:1055E00002F014FC10B9022002F0F2FC114B124C34
:1055F0001B7813F0010018BFD808FDF79BFB20783B
:1056000000F002FB60B948F2A70302216846ADF83A
:10561000003007F0BFFE3368002BB3D004B070BD7C
:10562000207800F0F1FA0128EDD048F2A713ECE75A
:1056300054240020EC4400207224002004F0AAB876
:1056400010B5294C00232278032A0FD8DFE802F096
:10565000021527390A21254A9170D370FCF782FF81
:10566000022805D0214803F0D9FD0123237003E06F
:1056700008F048FD0028F5D010BD1C4A9370F623B1
:10568000D370FCF76FFF022804D0184803F0C6FD62
:105690000223EBE708F036FD0028F6D0ECE7F62110
:1056A000124A9170D370FCF75DFF022804D00F48B6
:1056B00003F0B4FD0323D9E708F024FD0028F6D059
:1056C000DAE70A4A93700A23D370FCF74BFF0228EB
:1056D00004D0064803F0A2FD0023C7E708F012FD3E
:1056E0000028F6D0C8E700BF342400204C24002056
:1056F000024B1B780BB1FFF7A3BF70475C2400205F
:1057000008B501F065FF4FF4FA7005F0A0FABDE8A6
:10571000084001F05DBF00002DE9F04100244FF08A
:1057200001080B4F0025EEB23146204601F088FEFD
:1057300020B156EA040308BF87F8008001350F2D19
:10574000F1D10134E4B2052CECD1BDE8F08100BF09
:105750003624002073B500243C4B3D4D1C703D4B5E
:1057600080261C60FEF78CF8284622464FF4004144
:1057700006F078FD20220421374806F073FD284604
:105780000122802106F06EFD4FF40033AE61A5F5D5
:105790008065AB6128460122022106F063FD314697
:1057A0002846012206F05EFD4FF400030126AB619E
:1057B00028462A4D4FF48172402106F053FD2946B8
:1057C000EE60274805F0CAFE82224FF480714FF048
:1057D000804006F047FD2946EE60224D224805F044
:1057E000BDFEFDF759FF2846FCF726FD03F05EFFDE
:1057F0001E4B324618601E4B2146019320464FF443
:10580000FA730094FDF7FCFC1A48FDF7B7FB15F896
:10581000013C1B0716D5FDF759FC002002F0C2FB26
:1058200002F028FB38B1144B1B7803F00603042B5D
:1058300001D1FDF727FBFFF76FFF02B0BDE8704015
:1058400001F02FBBFDF752FCE7E700BF3224002038
:10585000000800403C240020000C0040900C002078
:1058600000460020C94400201C460020542400208B
:10587000693F00080D540008C844002070B5037843
:1058800005460B2B0E460BD10124447003F00EFF8E
:10589000044B314618602846FDF78AF8204670BD53
:1058A0000020FCE73C24002005280DD804290BD853
:1058B0000E2A09D84B23C1EB011103FB0011034B46
:1058C0000A4433F8120070470120704774E500085D
:1058D000A0F58073B3F5F85F10B526D210F4805FA1
:1058E00000F4807300F4007400F4806100F400623E
:1058F0000DD0002B0CBF002010200CB140F0200078
:1059000009B140F040000AB140F0800010BD181EFF
:1059100018BF01200CB140F0020009B140F00400B2
:10592000002AF3D040F00800F0E70020EEE710B5C1
:105930000C46FFF7CDFF2346BDE810401847000096
:10594000A0F1E003072B10B5044600D940B920466A
:105950000449FFF7ECFFE0B2BDE8104000F0E4B905
:105960000149F6E7795E0008A162000810B5044617
:10597000C0B200F021FAA4F1E003072B00D92CB942
:1059800003492046BDE81040FFF7D1BF0149F8E7C1
:105990008B5E0008B362000838B505460C46FFF779
:1059A000CFFF1CB92846FFF7E1FF38BD6420013C5A
:1059B00005F04DF9A4B2F4E708B539280CBF502121
:1059C0000121FFF7E9FF08BD012070470120704762
:1059D00001207047012070470120704770477047D1
:1059E00008B5FFF7FCFF08BD0120704770477047FE
:1059F00013B502AB03E903000F4B1B78B3B99DF855
:105A0000053073B16AB100F095FD04460146009877
:105A100000F05CFD2046009902B0BDE8104001F0A6
:105A2000E7BB009800F06EFD0446F3E7009800F035
:105A300081FD0099F0E700BF71240020034610B4F7
:105A400000885C880A4640EA0440998810BCFFF749
:105A5000CFBF10B504460121FFF7F0FF2146FFF745
:105A6000B3FF30B101212046FFF7E8FF2146FCF7E4
:105A7000D5FD00F0010010BD38B500210446FFF748
:105A8000DDFF05462146FFF7A9FF21462846FFF71F
:105A9000A7FF38BD012303FA00F0C0B200F079BCC3
:105AA00010B504460120A040C0B201F04AF92046DA
:105AB000BDE81040FFF7EEBF0120704708B5FFF7C3
:105AC000FBFF08BD10B5044600F014FC2046FFF7AC
:105AD0008BFF2046FFF7F2FFBDE8104046F2A8100A
